{
  "contractName": "EthRiddle",
  "abi": [
    {
      "inputs": [],
      "payable": false,
      "stateMutability": "nonpayable",
      "type": "constructor"
    },
    {
      "payable": true,
      "stateMutability": "payable",
      "type": "fallback"
    },
    {
      "constant": false,
      "inputs": [],
      "name": "kill",
      "outputs": [],
      "payable": false,
      "stateMutability": "nonpayable",
      "type": "function"
    },
    {
      "constant": false,
      "inputs": [
        {
          "name": "id",
          "type": "string"
        },
        {
          "name": "answer",
          "type": "string"
        },
        {
          "name": "guessCost",
          "type": "uint256"
        },
        {
          "name": "payoutAmt",
          "type": "uint256"
        },
        {
          "name": "guessTaxation",
          "type": "uint256"
        },
        {
          "name": "payoutTaxation",
          "type": "uint256"
        }
      ],
      "name": "createRiddle",
      "outputs": [],
      "payable": true,
      "stateMutability": "payable",
      "type": "function"
    },
    {
      "constant": false,
      "inputs": [
        {
          "name": "id",
          "type": "string"
        },
        {
          "name": "guess",
          "type": "string"
        }
      ],
      "name": "guess",
      "outputs": [],
      "payable": true,
      "stateMutability": "payable",
      "type": "function"
    },
    {
      "constant": false,
      "inputs": [
        {
          "name": "id",
          "type": "string"
        },
        {
          "name": "amt",
          "type": "uint256"
        }
      ],
      "name": "withdrawFromRiddle",
      "outputs": [],
      "payable": true,
      "stateMutability": "payable",
      "type": "function"
    },
    {
      "constant": false,
      "inputs": [
        {
          "name": "id",
          "type": "string"
        }
      ],
      "name": "cancelRiddle",
      "outputs": [],
      "payable": true,
      "stateMutability": "payable",
      "type": "function"
    },
    {
      "constant": true,
      "inputs": [
        {
          "name": "id",
          "type": "string"
        }
      ],
      "name": "checkForPaidOut",
      "outputs": [
        {
          "name": "",
          "type": "bool"
        }
      ],
      "payable": false,
      "stateMutability": "view",
      "type": "function"
    },
    {
      "constant": true,
      "inputs": [
        {
          "name": "id",
          "type": "string"
        }
      ],
      "name": "checkForCancelled",
      "outputs": [
        {
          "name": "",
          "type": "bool"
        }
      ],
      "payable": false,
      "stateMutability": "view",
      "type": "function"
    },
    {
      "constant": true,
      "inputs": [
        {
          "name": "id",
          "type": "string"
        }
      ],
      "name": "checkForActivity",
      "outputs": [
        {
          "name": "",
          "type": "bool"
        }
      ],
      "payable": false,
      "stateMutability": "view",
      "type": "function"
    },
    {
      "constant": true,
      "inputs": [
        {
          "name": "id",
          "type": "string"
        }
      ],
      "name": "getBalance",
      "outputs": [
        {
          "name": "",
          "type": "uint256"
        }
      ],
      "payable": false,
      "stateMutability": "view",
      "type": "function"
    },
    {
      "constant": true,
      "inputs": [
        {
          "name": "id",
          "type": "string"
        }
      ],
      "name": "getOwnerOfRiddle",
      "outputs": [
        {
          "name": "",
          "type": "address"
        }
      ],
      "payable": false,
      "stateMutability": "view",
      "type": "function"
    },
    {
      "constant": true,
      "inputs": [],
      "name": "getOwnerOfEthRiddle",
      "outputs": [
        {
          "name": "",
          "type": "address"
        }
      ],
      "payable": false,
      "stateMutability": "view",
      "type": "function"
    },
    {
      "constant": true,
      "inputs": [],
      "name": "getEthRiddleBalance",
      "outputs": [
        {
          "name": "",
          "type": "uint256"
        }
      ],
      "payable": false,
      "stateMutability": "view",
      "type": "function"
    }
  ],
  "bytecode": "0x6060604052341561000f57600080fd5b33600160006101000a81548173ffffffffffffffffffffffffffffffffffffffff021916908373ffffffffffffffffffffffffffffffffffffffff160217905550611c1e8061005f6000396000f3006060604052600436106100ba576000357c0100000000000000000000000000000000000000000000000000000000900463ffffffff1680632ad09f40146100bc57806331e47a8a1461011157806334f108b6146101865780633a51d2461461022357806341c0e1b51461029457806359eaf925146102a957806361b3ffa014610362578063a48b371b146103d7578063b212a5a71461046c578063bda7224d146104c7578063ed8c95fe14610519578063f56f53c314610542575b005b34156100c757600080fd5b6100cf6105b7565b604051808273ffffffffffffffffffffffffffffffffffffffff1673ffffffffffffffffffffffffffffffffffffffff16815260200191505060405180910390f35b341561011c57600080fd5b61016c600480803590602001908201803590602001908080601f016020809104026020016040519081016040528093929190818152602001838380828437820191505050505050919050506105e1565b604051808215151515815260200191505060405180910390f35b341561019157600080fd5b6101e1600480803590602001908201803590602001908080601f01602080910402602001604051908101604052809392919081815260200183838082843782019150505050505091905050610785565b604051808273ffffffffffffffffffffffffffffffffffffffff1673ffffffffffffffffffffffffffffffffffffffff16815260200191505060405180910390f35b341561022e57600080fd5b61027e600480803590602001908201803590602001908080601f01602080910402602001604051908101604052809392919081815260200183838082843782019150505050505091905050610917565b6040518082815260200191505060405180910390f35b341561029f57600080fd5b6102a7610aeb565b005b610360600480803590602001908201803590602001908080601f0160208091040260200160405190810160405280939291908181526020018383808284378201915050505050509190803590602001908201803590602001908080601f01602080910402602001604051908101604052809392919081815260200183838082843782019150505050505091908035906020019091908035906020019091908035906020019091908035906020019091905050610b7e565b005b341561036d57600080fd5b6103bd600480803590602001908201803590602001908080601f01602080910402602001604051908101604052809392919081815260200183838082843782019150505050505091905050610e39565b604051808215151515815260200191505060405180910390f35b61046a600480803590602001908201803590602001908080601f0160208091040260200160405190810160405280939291908181526020018383808284378201915050505050509190803590602001908201803590602001908080601f01602080910402602001604051908101604052809392919081815260200183838082843782019150505050505091905050610fdd565b005b6104c5600480803590602001908201803590602001908080601f016020809104026020016040519081016040528093929190818152602001838380828437820191505050505050919080359060200190919050506114d6565b005b610517600480803590602001908201803590602001908080601f0160208091040260200160405190810160405280939291908181526020018383808284378201915050505050509190505061178b565b005b341561052457600080fd5b61052c6119b8565b6040518082815260200191505060405180910390f35b341561054d57600080fd5b61059d600480803590602001908201803590602001908080601f016020809104026020016040519081016040528093929190818152602001838380828437820191505050505050919050506119dc565b604051808215151515815260200191505060405180910390f35b6000600160009054906101000a900473ffffffffffffffffffffffffffffffffffffffff16905090565b6000806105ec611b7f565b836040518082805190602001908083835b60208310151561062257805182526020820191506020810190506020830392506105fd565b6001836020036101000a03801982511681845116808217855250505050505090500191505060405180910390209150600080836000191660001916815260200190815260200160002061014060405190810160405290816000820160009054906101000a900473ffffffffffffffffffffffffffffffffffffffff1673ffffffffffffffffffffffffffffffffffffffff1673ffffffffffffffffffffffffffffffffffffffff16815260200160018201546000191660001916815260200160028201548152602001600382015481526020016004820154815260200160058201548152602001600682015481526020016007820160009054906101000a900460ff161515151581526020016007820160019054906101000a900460ff161515151581526020016007820160029054906101000a900460ff161515151581525050905080610120015115610779576001925061077e565b600092505b5050919050565b600080610790611b7f565b836040518082805190602001908083835b6020831015156107c657805182526020820191506020810190506020830392506107a1565b6001836020036101000a03801982511681845116808217855250505050505090500191505060405180910390209150600080836000191660001916815260200190815260200160002061014060405190810160405290816000820160009054906101000a900473ffffffffffffffffffffffffffffffffffffffff1673ffffffffffffffffffffffffffffffffffffffff1673ffffffffffffffffffffffffffffffffffffffff16815260200160018201546000191660001916815260200160028201548152602001600382015481526020016004820154815260200160058201548152602001600682015481526020016007820160009054906101000a900460ff161515151581526020016007820160019054906101000a900460ff161515151581526020016007820160029054906101000a900460ff1615151515815250509050806000015192505050919050565b600080610922611b7f565b836040518082805190602001908083835b6020831015156109585780518252602082019150602081019050602083039250610933565b6001836020036101000a03801982511681845116808217855250505050505090500191505060405180910390209150600080836000191660001916815260200190815260200160002061014060405190810160405290816000820160009054906101000a900473ffffffffffffffffffffffffffffffffffffffff1673ffffffffffffffffffffffffffffffffffffffff1673ffffffffffffffffffffffffffffffffffffffff16815260200160018201546000191660001916815260200160028201548152602001600382015481526020016004820154815260200160058201548152602001600682015481526020016007820160009054906101000a900460ff161515151581526020016007820160019054906101000a900460ff161515151581526020016007820160029054906101000a900460ff1615151515815250509050806000015173ffffffffffffffffffffffffffffffffffffffff163373ffffffffffffffffffffffffffffffffffffffff161415610adf578060c001519250610ae4565b600092505b5050919050565b600160009054906101000a900473ffffffffffffffffffffffffffffffffffffffff1673ffffffffffffffffffffffffffffffffffffffff163373ffffffffffffffffffffffffffffffffffffffff161415610b7c57600160009054906101000a900473ffffffffffffffffffffffffffffffffffffffff1673ffffffffffffffffffffffffffffffffffffffff16ff5b565b600080610b89611b7f565b886040518082805190602001908083835b602083101515610bbf5780518252602082019150602081019050602083039250610b9a565b6001836020036101000a038019825116818451168082178552505050505050905001915050604051809103902092506000806000856000191660001916815260200190815260200160002060000160009054906101000a900473ffffffffffffffffffffffffffffffffffffffff1673ffffffffffffffffffffffffffffffffffffffff161415610e2e5785341415610e2d57876040518082805190602001908083835b602083101515610c885780518252602082019150602081019050602083039250610c63565b6001836020036101000a03801982511681845116808217855250505050505090500191505060405180910390209150610140604051908101604052803373ffffffffffffffffffffffffffffffffffffffff1681526020018360001916815260200188815260200187815260200186815260200185815260200134815260200160011515815260200160001515815260200160001515815250905080600080856000191660001916815260200190815260200160002060008201518160000160006101000a81548173ffffffffffffffffffffffffffffffffffffffff021916908373ffffffffffffffffffffffffffffffffffffffff1602179055506020820151816001019060001916905560408201518160020155606082015181600301556080820151816004015560a0820151816005015560c0820151816006015560e08201518160070160006101000a81548160ff0219169083151502179055506101008201518160070160016101000a81548160ff0219169083151502179055506101208201518160070160026101000a81548160ff0219169083151502179055509050505b5b505050505050505050565b600080610e44611b7f565b836040518082805190602001908083835b602083101515610e7a5780518252602082019150602081019050602083039250610e55565b6001836020036101000a03801982511681845116808217855250505050505090500191505060405180910390209150600080836000191660001916815260200190815260200160002061014060405190810160405290816000820160009054906101000a900473ffffffffffffffffffffffffffffffffffffffff1673ffffffffffffffffffffffffffffffffffffffff1673ffffffffffffffffffffffffffffffffffffffff16815260200160018201546000191660001916815260200160028201548152602001600382015481526020016004820154815260200160058201548152602001600682015481526020016007820160009054906101000a900460ff161515151581526020016007820160019054906101000a900460ff161515151581526020016007820160029054906101000a900460ff161515151581525050905080610100015115610fd15760019250610fd6565b600092505b5050919050565b6000610fe7611b7f565b836040518082805190602001908083835b60208310151561101d5780518252602082019150602081019050602083039250610ff8565b6001836020036101000a03801982511681845116808217855250505050505090500191505060405180910390209150600080836000191660001916815260200190815260200160002061014060405190810160405290816000820160009054906101000a900473ffffffffffffffffffffffffffffffffffffffff1673ffffffffffffffffffffffffffffffffffffffff1673ffffffffffffffffffffffffffffffffffffffff16815260200160018201546000191660001916815260200160028201548152602001600382015481526020016004820154815260200160058201548152602001600682015481526020016007820160009054906101000a900460ff161515151581526020016007820160019054906101000a900460ff161515151581526020016007820160029054906101000a900460ff161515151581525050905080604001513414801561117b575080606001518160c0015110155b801561119957508061010001511580156111985750806101200151155b5b80156111a657508060e001515b1561148f57806020015160001916836040518082805190602001908083835b6020831015156111ea57805182526020820191506020810190506020830392506111c5565b6001836020036101000a03801982511681845116808217855250505050505090500191505060405180910390206000191614156113d8578060600151600080846000191660001916815260200190815260200160002060060154036000808460001916600019168152602001908152602001600020600601819055508060800151816040015160008085600019166000191681526020019081526020016000206006015401036000808460001916600019168152602001908152602001600020600601819055506001600080846000191660001916815260200190815260200160002060070160016101000a81548160ff0219169083151502179055506000806000846000191660001916815260200190815260200160002060070160006101000a81548160ff021916908315150217905550600160009054906101000a900473ffffffffffffffffffffffffffffffffffffffff1673ffffffffffffffffffffffffffffffffffffffff166108fc82608001518360a00151019081150290604051600060405180830381858888f19350505050151561138957600080fd5b3373ffffffffffffffffffffffffffffffffffffffff166108fc8260a001518360600151039081150290604051600060405180830381858888f1935050505015156113d357600080fd5b61148a565b806080015181604001516000808560001916600019168152602001908152602001600020600601540103600080846000191660001916815260200190815260200160002060060181905550600160009054906101000a900473ffffffffffffffffffffffffffffffffffffffff1673ffffffffffffffffffffffffffffffffffffffff166108fc82608001519081150290604051600060405180830381858888f19350505050151561148957600080fd5b5b6114d0565b3373ffffffffffffffffffffffffffffffffffffffff166108fc349081150290604051600060405180830381858888f1935050505015156114cf57600080fd5b5b50505050565b60006114e0611b7f565b836040518082805190602001908083835b60208310151561151657805182526020820191506020810190506020830392506114f1565b6001836020036101000a03801982511681845116808217855250505050505090500191505060405180910390209150600080836000191660001916815260200190815260200160002061014060405190810160405290816000820160009054906101000a900473ffffffffffffffffffffffffffffffffffffffff1673ffffffffffffffffffffffffffffffffffffffff1673ffffffffffffffffffffffffffffffffffffffff16815260200160018201546000191660001916815260200160028201548152602001600382015481526020016004820154815260200160058201548152602001600682015481526020016007820160009054906101000a900460ff161515151581526020016007820160019054906101000a900460ff161515151581526020016007820160029054906101000a900460ff1615151515815250509050806000015173ffffffffffffffffffffffffffffffffffffffff163373ffffffffffffffffffffffffffffffffffffffff16141561178557828160c001511015156117845782600080846000191660001916815260200190815260200160002060060154036000808460001916600019168152602001908152602001600020600601819055508060600151600080846000191660001916815260200190815260200160002060060154101561173f576000806000846000191660001916815260200190815260200160002060070160006101000a81548160ff0219169083151502179055505b806000015173ffffffffffffffffffffffffffffffffffffffff166108fc849081150290604051600060405180830381858888f19350505050151561178357600080fd5b5b5b50505050565b6000611795611b7f565b826040518082805190602001908083835b6020831015156117cb57805182526020820191506020810190506020830392506117a6565b6001836020036101000a03801982511681845116808217855250505050505090500191505060405180910390209150600080836000191660001916815260200190815260200160002061014060405190810160405290816000820160009054906101000a900473ffffffffffffffffffffffffffffffffffffffff1673ffffffffffffffffffffffffffffffffffffffff1673ffffffffffffffffffffffffffffffffffffffff16815260200160018201546000191660001916815260200160028201548152602001600382015481526020016004820154815260200160058201548152602001600682015481526020016007820160009054906101000a900460ff161515151581526020016007820160019054906101000a900460ff161515151581526020016007820160029054906101000a900460ff1615151515815250509050806000015173ffffffffffffffffffffffffffffffffffffffff163373ffffffffffffffffffffffffffffffffffffffff1614156119b3576000806000846000191660001916815260200190815260200160002060070160006101000a81548160ff0219169083151502179055506001600080846000191660001916815260200190815260200160002060070160026101000a81548160ff0219169083151502179055505b505050565b6000803090508073ffffffffffffffffffffffffffffffffffffffff163191505090565b6000806119e7611b7f565b836040518082805190602001908083835b602083101515611a1d57805182526020820191506020810190506020830392506119f8565b6001836020036101000a03801982511681845116808217855250505050505090500191505060405180910390209150600080836000191660001916815260200190815260200160002061014060405190810160405290816000820160009054906101000a900473ffffffffffffffffffffffffffffffffffffffff1673ffffffffffffffffffffffffffffffffffffffff1673ffffffffffffffffffffffffffffffffffffffff16815260200160018201546000191660001916815260200160028201548152602001600382015481526020016004820154815260200160058201548152602001600682015481526020016007820160009054906101000a900460ff161515151581526020016007820160019054906101000a900460ff161515151581526020016007820160029054906101000a900460ff16151515158152505090508060e0015115611b735760019250611b78565b600092505b5050919050565b61014060405190810160405280600073ffffffffffffffffffffffffffffffffffffffff16815260200160008019168152602001600081526020016000815260200160008152602001600081526020016000815260200160001515815260200160001515815260200160001515815250905600a165627a7a72305820179ac7019baf76f09d486b411c8060dfaa1632692a7c7963f2d5d8713dd57d360029",
  "source": "pragma solidity ^0.4.17;\n\n//All amounts in Wei NOT ether\n\ncontract EthRiddle {\n\n\tstruct Riddle {\n\t\taddress owner;\n\t\tbytes32 answer;\n\t\tuint guessCost;\n\t\tuint payoutAmt;\n\t\tuint guessTaxation;\n\t\tuint payoutTaxation;\n\t\tuint balance;\n\t\tbool active;\n\t\tbool hasPaidOut;\n\t\tbool hasCancelled;\n\t}\n\n\tmapping (bytes32 => Riddle) riddles;\n\taddress private ownerOfEthRiddle;\n\n\t//Fallback function\n\tfunction() public payable { }\n\n\n\tfunction EthRiddle() public {\n\t\townerOfEthRiddle = msg.sender;\n\t}\n\n\tfunction kill() public {\n\t\tif (msg.sender == ownerOfEthRiddle) {\n\t\tselfdestruct(ownerOfEthRiddle);\n\t\t}\n\t}\n\n\tfunction createRiddle(string id, string answer, uint guessCost, uint payoutAmt, uint guessTaxation, uint payoutTaxation) public payable {\n\t\tbytes32 bytesId = keccak256(id);\n\t\tif (riddles[bytesId].owner == 0) {\n\t\t\tif (msg.value==payoutAmt){\n\t\t\t\tbytes32 hashedAnswer = keccak256(answer);\n\t\t\t\tRiddle memory riddle = Riddle(msg.sender, hashedAnswer, guessCost, payoutAmt, guessTaxation, payoutTaxation, msg.value, true, false, false);\n\t\t\t\triddles[bytesId] = riddle;\n\t\t\t\t\n\t\t\t}\n\t\t}\n\t}\n\n\tfunction guess(string id, string guess) public payable {\n\t\tbytes32 bytesId = keccak256(id);\n\t\tRiddle memory riddle = riddles[bytesId];\n\t\t//if tx value sent is equal to guessCost and balance is sufficient for payout and the riddle hasn't paid out and the riddle hasn't cancelled and riddle is active\n\t\tif ((((msg.value==riddle.guessCost)&&(riddle.balance>=riddle.payoutAmt))\n\t\t\t&&((!riddle.hasPaidOut)&&(!riddle.hasCancelled)))\n\t\t\t&&(riddle.active)) {\n\t\t\tif (keccak256(guess)==riddle.answer) {\n\t\t\t\triddles[bytesId].balance = riddles[bytesId].balance - riddle.payoutAmt;\n\t\t\t\triddles[bytesId].balance = riddles[bytesId].balance + riddle.guessCost - riddle.guessTaxation;\n\t\t\t\triddles[bytesId].hasPaidOut = true;\n\t\t\t\triddles[bytesId].active = false;\n\t\t\t\townerOfEthRiddle.transfer(riddle.payoutTaxation+riddle.guessTaxation);\n\t\t\t\tmsg.sender.transfer(riddle.payoutAmt-riddle.payoutTaxation);\n\t\t\t}\n\t\t\telse {\n\t\t\t\triddles[bytesId].balance = riddles[bytesId].balance + riddle.guessCost - riddle.guessTaxation;\n\t\t\t\townerOfEthRiddle.transfer(riddle.guessTaxation); \n\t\t\t}\n\t\t}\n\t\telse {\n\t\t\tmsg.sender.transfer(msg.value);\n\t\t}\n\t}\n\n\tfunction withdrawFromRiddle(string id, uint amt) public payable {\n\t\tbytes32 bytesId = keccak256(id);\n\t\tRiddle memory riddle = riddles[bytesId];\n\t\tif (msg.sender==riddle.owner) {\n\t\t\tif (riddle.balance>=amt) {\n\t\t\t\triddles[bytesId].balance = riddles[bytesId].balance - amt;\n\t\t\t\tif (riddles[bytesId].balance<riddle.payoutAmt){\n\t\t\t\t\triddles[bytesId].active = false;\n\t\t\t\t}\n\t\t\t\triddle.owner.transfer(amt);\n\t\t\t}\n\t\t}\n\t}\n\n\tfunction cancelRiddle(string id) public payable {\n\t\tbytes32 bytesId = keccak256(id);\n\t\tRiddle memory riddle = riddles[bytesId];\n\t\tif (msg.sender==riddle.owner) {\n\t\t\triddles[bytesId].active = false;\n\t\t\triddles[bytesId].hasCancelled = true;\n\t\t}\n\t}\n\n\tfunction checkForPaidOut(string id) public view returns (bool) {\n\t\tbytes32 bytesId = keccak256(id);\n\t\tRiddle memory riddle = riddles[bytesId];\n\t\tif (riddle.hasPaidOut) {\n\t\t\treturn true;\n\t\t}\n\t\telse {\n\t\t\treturn false;\n\t\t}\n\t}\n\n\tfunction checkForCancelled(string id) public view returns (bool) {\n\t\tbytes32 bytesId = keccak256(id);\n\t\tRiddle memory riddle = riddles[bytesId];\n\t\tif (riddle.hasCancelled) {\n\t\t\treturn true;\n\t\t} \n\t\telse {\n\t\t\treturn false;\n\t\t}\n\t}\n\n\tfunction checkForActivity(string id) public view returns (bool){\n\t\tbytes32 bytesId = keccak256(id);\n\t\tRiddle memory riddle = riddles[bytesId];\n\t\tif (riddle.active) {\n\t\t\treturn true;\n\t\t}\n\t\telse {\n\t\t\treturn false;\n\t\t}\n\t}\n\n\tfunction getBalance(string id) public view returns (uint) {\n\t\tbytes32 bytesId = keccak256(id);\n\t\tRiddle memory riddle = riddles[bytesId];\n\n\t\tif (msg.sender==riddle.owner) {\n\t\t\treturn riddle.balance;\n\t\t}\n\t\telse {\n\t\t\treturn 0;\n\t\t}\n\t}\n\n\tfunction getOwnerOfRiddle(string id) public view returns (address) {\n\t\tbytes32 bytesId = keccak256(id);\n\t\tRiddle memory riddle = riddles[bytesId];\n\t\treturn riddle.owner;\n\t}\n\n\tfunction getOwnerOfEthRiddle() public view returns (address) {\n\t\treturn ownerOfEthRiddle;\n\t}\n\n\tfunction getEthRiddleBalance() public view returns (uint) {\n\t\taddress myAddress = this;\n\t\treturn myAddress.balance;\n\t}\n\n}",
  "sourcePath": "/Users/Home/Desktop/Files/solidity/EthRiddle/contracts/EthRiddle.sol",
  "compiler": {
    "name": "solc",
    "version": "0.4.21+commit.dfe3193c.Emscripten.clang"
  },
  "schemaVersion": "2.0.0",
  "updatedAt": "2018-04-09T01:44:39.634Z"
}